{
  "_format": "hh-sol-artifact-1",
  "contractName": "Comment",
  "sourceName": "contracts/CreatorStaking.sol",
  "abi": [
    {
      "inputs": [],
      "stateMutability": "nonpayable",
      "type": "constructor"
    },
    {
      "anonymous": false,
      "inputs": [
        {
          "indexed": true,
          "internalType": "address",
          "name": "owner",
          "type": "address"
        },
        {
          "indexed": true,
          "internalType": "address",
          "name": "approved",
          "type": "address"
        },
        {
          "indexed": true,
          "internalType": "uint256",
          "name": "tokenId",
          "type": "uint256"
        }
      ],
      "name": "Approval",
      "type": "event"
    },
    {
      "anonymous": false,
      "inputs": [
        {
          "indexed": true,
          "internalType": "address",
          "name": "owner",
          "type": "address"
        },
        {
          "indexed": true,
          "internalType": "address",
          "name": "operator",
          "type": "address"
        },
        {
          "indexed": false,
          "internalType": "bool",
          "name": "approved",
          "type": "bool"
        }
      ],
      "name": "ApprovalForAll",
      "type": "event"
    },
    {
      "anonymous": false,
      "inputs": [
        {
          "indexed": true,
          "internalType": "address",
          "name": "previousOwner",
          "type": "address"
        },
        {
          "indexed": true,
          "internalType": "address",
          "name": "newOwner",
          "type": "address"
        }
      ],
      "name": "OwnershipTransferred",
      "type": "event"
    },
    {
      "anonymous": false,
      "inputs": [
        {
          "indexed": true,
          "internalType": "address",
          "name": "from",
          "type": "address"
        },
        {
          "indexed": true,
          "internalType": "address",
          "name": "to",
          "type": "address"
        },
        {
          "indexed": true,
          "internalType": "uint256",
          "name": "tokenId",
          "type": "uint256"
        }
      ],
      "name": "Transfer",
      "type": "event"
    },
    {
      "inputs": [
        {
          "internalType": "address",
          "name": "to",
          "type": "address"
        },
        {
          "internalType": "uint256",
          "name": "tokenId",
          "type": "uint256"
        }
      ],
      "name": "approve",
      "outputs": [],
      "stateMutability": "nonpayable",
      "type": "function"
    },
    {
      "inputs": [
        {
          "internalType": "address",
          "name": "owner",
          "type": "address"
        }
      ],
      "name": "balanceOf",
      "outputs": [
        {
          "internalType": "uint256",
          "name": "",
          "type": "uint256"
        }
      ],
      "stateMutability": "view",
      "type": "function"
    },
    {
      "inputs": [
        {
          "internalType": "uint256",
          "name": "tokenId",
          "type": "uint256"
        }
      ],
      "name": "burn",
      "outputs": [],
      "stateMutability": "nonpayable",
      "type": "function"
    },
    {
      "inputs": [],
      "name": "count",
      "outputs": [
        {
          "internalType": "uint256",
          "name": "",
          "type": "uint256"
        }
      ],
      "stateMutability": "view",
      "type": "function"
    },
    {
      "inputs": [
        {
          "internalType": "uint256",
          "name": "tokenId",
          "type": "uint256"
        }
      ],
      "name": "getApproved",
      "outputs": [
        {
          "internalType": "address",
          "name": "",
          "type": "address"
        }
      ],
      "stateMutability": "view",
      "type": "function"
    },
    {
      "inputs": [
        {
          "internalType": "address",
          "name": "owner",
          "type": "address"
        },
        {
          "internalType": "address",
          "name": "operator",
          "type": "address"
        }
      ],
      "name": "isApprovedForAll",
      "outputs": [
        {
          "internalType": "bool",
          "name": "",
          "type": "bool"
        }
      ],
      "stateMutability": "view",
      "type": "function"
    },
    {
      "inputs": [],
      "name": "name",
      "outputs": [
        {
          "internalType": "string",
          "name": "",
          "type": "string"
        }
      ],
      "stateMutability": "view",
      "type": "function"
    },
    {
      "inputs": [],
      "name": "owner",
      "outputs": [
        {
          "internalType": "address",
          "name": "",
          "type": "address"
        }
      ],
      "stateMutability": "view",
      "type": "function"
    },
    {
      "inputs": [
        {
          "internalType": "uint256",
          "name": "tokenId",
          "type": "uint256"
        }
      ],
      "name": "ownerOf",
      "outputs": [
        {
          "internalType": "address",
          "name": "",
          "type": "address"
        }
      ],
      "stateMutability": "view",
      "type": "function"
    },
    {
      "inputs": [],
      "name": "renounceOwnership",
      "outputs": [],
      "stateMutability": "nonpayable",
      "type": "function"
    },
    {
      "inputs": [
        {
          "internalType": "address",
          "name": "from",
          "type": "address"
        },
        {
          "internalType": "address",
          "name": "to",
          "type": "address"
        },
        {
          "internalType": "uint256",
          "name": "tokenId",
          "type": "uint256"
        }
      ],
      "name": "safeTransferFrom",
      "outputs": [],
      "stateMutability": "nonpayable",
      "type": "function"
    },
    {
      "inputs": [
        {
          "internalType": "address",
          "name": "from",
          "type": "address"
        },
        {
          "internalType": "address",
          "name": "to",
          "type": "address"
        },
        {
          "internalType": "uint256",
          "name": "tokenId",
          "type": "uint256"
        },
        {
          "internalType": "bytes",
          "name": "_data",
          "type": "bytes"
        }
      ],
      "name": "safeTransferFrom",
      "outputs": [],
      "stateMutability": "nonpayable",
      "type": "function"
    },
    {
      "inputs": [
        {
          "internalType": "address",
          "name": "operator",
          "type": "address"
        },
        {
          "internalType": "bool",
          "name": "approved",
          "type": "bool"
        }
      ],
      "name": "setApprovalForAll",
      "outputs": [],
      "stateMutability": "nonpayable",
      "type": "function"
    },
    {
      "inputs": [
        {
          "internalType": "uint256",
          "name": "deadline",
          "type": "uint256"
        },
        {
          "internalType": "string",
          "name": "uri",
          "type": "string"
        }
      ],
      "name": "stake",
      "outputs": [
        {
          "internalType": "uint256",
          "name": "",
          "type": "uint256"
        }
      ],
      "stateMutability": "payable",
      "type": "function"
    },
    {
      "inputs": [
        {
          "internalType": "uint256",
          "name": "",
          "type": "uint256"
        }
      ],
      "name": "stakers",
      "outputs": [
        {
          "internalType": "address payable",
          "name": "staker",
          "type": "address"
        },
        {
          "internalType": "uint256",
          "name": "amount",
          "type": "uint256"
        },
        {
          "internalType": "uint256",
          "name": "deadline",
          "type": "uint256"
        }
      ],
      "stateMutability": "view",
      "type": "function"
    },
    {
      "inputs": [
        {
          "internalType": "bytes4",
          "name": "interfaceId",
          "type": "bytes4"
        }
      ],
      "name": "supportsInterface",
      "outputs": [
        {
          "internalType": "bool",
          "name": "",
          "type": "bool"
        }
      ],
      "stateMutability": "view",
      "type": "function"
    },
    {
      "inputs": [],
      "name": "symbol",
      "outputs": [
        {
          "internalType": "string",
          "name": "",
          "type": "string"
        }
      ],
      "stateMutability": "view",
      "type": "function"
    },
    {
      "inputs": [
        {
          "internalType": "uint256",
          "name": "tokenId",
          "type": "uint256"
        }
      ],
      "name": "tokenURI",
      "outputs": [
        {
          "internalType": "string",
          "name": "",
          "type": "string"
        }
      ],
      "stateMutability": "view",
      "type": "function"
    },
    {
      "inputs": [
        {
          "internalType": "address",
          "name": "from",
          "type": "address"
        },
        {
          "internalType": "address",
          "name": "to",
          "type": "address"
        },
        {
          "internalType": "uint256",
          "name": "tokenId",
          "type": "uint256"
        }
      ],
      "name": "transferFrom",
      "outputs": [],
      "stateMutability": "nonpayable",
      "type": "function"
    },
    {
      "inputs": [
        {
          "internalType": "address",
          "name": "newOwner",
          "type": "address"
        }
      ],
      "name": "transferOwnership",
      "outputs": [],
      "stateMutability": "nonpayable",
      "type": "function"
    },
    {
      "inputs": [
        {
          "internalType": "uint256",
          "name": "id",
          "type": "uint256"
        }
      ],
      "name": "unstake",
      "outputs": [
        {
          "internalType": "uint256",
          "name": "",
          "type": "uint256"
        }
      ],
      "stateMutability": "payable",
      "type": "function"
    }
  ],
  "bytecode": "0x60806040523480156200001157600080fd5b506040518060400160405280600781526020017f436f6d6d656e74000000000000000000000000000000000000000000000000008152506040518060400160405280600381526020017f434d540000000000000000000000000000000000000000000000000000000000815250816000908051906020019062000096929190620001a6565b508060019080519060200190620000af929190620001a6565b505050620000d2620000c6620000d860201b60201c565b620000e060201b60201c565b620002bb565b600033905090565b6000600760009054906101000a900473ffffffffffffffffffffffffffffffffffffffff16905081600760006101000a81548173ffffffffffffffffffffffffffffffffffffffff021916908373ffffffffffffffffffffffffffffffffffffffff1602179055508173ffffffffffffffffffffffffffffffffffffffff168173ffffffffffffffffffffffffffffffffffffffff167f8be0079c531659141344cd1fd0a4f28419497f9722a3daafe3b4186f6b6457e060405160405180910390a35050565b828054620001b49062000256565b90600052602060002090601f016020900481019282620001d8576000855562000224565b82601f10620001f357805160ff191683800117855562000224565b8280016001018555821562000224579182015b828111156200022357825182559160200191906001019062000206565b5b50905062000233919062000237565b5090565b5b808211156200025257600081600090555060010162000238565b5090565b600060028204905060018216806200026f57607f821691505b602082108114156200028657620002856200028c565b5b50919050565b7f4e487b7100000000000000000000000000000000000000000000000000000000600052602260045260246000fd5b6138f480620002cb6000396000f3fe60806040526004361061012a5760003560e01c806370a08231116100ab578063b88d4fde1161006f578063b88d4fde146103e3578063c87b56dd1461040c578063e7e4e1f714610449578063e985e9c514610479578063f2fde38b146104b6578063fd5e6dd1146104df5761012a565b806370a0823114610310578063715018a61461034d5780638da5cb5b1461036457806395d89b411461038f578063a22cb465146103ba5761012a565b806323b872dd116100f257806323b872dd146102285780632e17de781461025157806342842e0e1461028157806342966c68146102aa5780636352211e146102d35761012a565b806301ffc9a71461012f57806306661abd1461016c57806306fdde0314610197578063081812fc146101c2578063095ea7b3146101ff575b600080fd5b34801561013b57600080fd5b50610156600480360381019061015191906125fb565b61051e565b6040516101639190612b6d565b60405180910390f35b34801561017857600080fd5b50610181610600565b60405161018e9190612e6a565b60405180910390f35b3480156101a357600080fd5b506101ac610611565b6040516101b99190612b88565b60405180910390f35b3480156101ce57600080fd5b506101e960048036038101906101e4919061264d565b6106a3565b6040516101f69190612acf565b60405180910390f35b34801561020b57600080fd5b50610226600480360381019061022191906125bf565b610728565b005b34801561023457600080fd5b5061024f600480360381019061024a91906124b9565b610840565b005b61026b6004803603810190610266919061264d565b6108a0565b6040516102789190612e6a565b60405180910390f35b34801561028d57600080fd5b506102a860048036038101906102a391906124b9565b610a4d565b005b3480156102b657600080fd5b506102d160048036038101906102cc919061264d565b610a6d565b005b3480156102df57600080fd5b506102fa60048036038101906102f5919061264d565b610ac9565b6040516103079190612acf565b60405180910390f35b34801561031c57600080fd5b5061033760048036038101906103329190612454565b610b7b565b6040516103449190612e6a565b60405180910390f35b34801561035957600080fd5b50610362610c33565b005b34801561037057600080fd5b50610379610cbb565b6040516103869190612acf565b60405180910390f35b34801561039b57600080fd5b506103a4610ce5565b6040516103b19190612b88565b60405180910390f35b3480156103c657600080fd5b506103e160048036038101906103dc9190612583565b610d77565b005b3480156103ef57600080fd5b5061040a60048036038101906104059190612508565b610d8d565b005b34801561041857600080fd5b50610433600480360381019061042e919061264d565b610def565b6040516104409190612b88565b60405180910390f35b610463600480360381019061045e9190612676565b610e01565b6040516104709190612e6a565b60405180910390f35b34801561048557600080fd5b506104a0600480360381019061049b919061247d565b610eff565b6040516104ad9190612b6d565b60405180910390f35b3480156104c257600080fd5b506104dd60048036038101906104d89190612454565b610f93565b005b3480156104eb57600080fd5b506105066004803603810190610501919061264d565b61108b565b60405161051593929190612aea565b60405180910390f35b60007f80ac58cd000000000000000000000000000000000000000000000000000000007bffffffffffffffffffffffffffffffffffffffffffffffffffffffff1916827bffffffffffffffffffffffffffffffffffffffffffffffffffffffff191614806105e957507f5b5e139f000000000000000000000000000000000000000000000000000000007bffffffffffffffffffffffffffffffffffffffffffffffffffffffff1916827bffffffffffffffffffffffffffffffffffffffffffffffffffffffff1916145b806105f957506105f8826110d5565b5b9050919050565b600061060c600861113f565b905090565b606060008054610620906130d2565b80601f016020809104026020016040519081016040528092919081815260200182805461064c906130d2565b80156106995780601f1061066e57610100808354040283529160200191610699565b820191906000526020600020905b81548152906001019060200180831161067c57829003601f168201915b5050505050905090565b60006106ae8261114d565b6106ed576040517f08c379a00000000000000000000000000000000000000000000000000000000081526004016106e490612daa565b60405180910390fd5b6004600083815260200190815260200160002060009054906101000a900473ffffffffffffffffffffffffffffffffffffffff169050919050565b600061073382610ac9565b90508073ffffffffffffffffffffffffffffffffffffffff168373ffffffffffffffffffffffffffffffffffffffff1614156107a4576040517f08c379a000000000000000000000000000000000000000000000000000000000815260040161079b90612e0a565b60405180910390fd5b8073ffffffffffffffffffffffffffffffffffffffff166107c36111b9565b73ffffffffffffffffffffffffffffffffffffffff1614806107f257506107f1816107ec6111b9565b610eff565b5b610831576040517f08c379a000000000000000000000000000000000000000000000000000000000815260040161082890612cca565b60405180910390fd5b61083b83836111c1565b505050565b61085161084b6111b9565b8261127a565b610890576040517f08c379a000000000000000000000000000000000000000000000000000000000815260040161088790612e2a565b60405180910390fd5b61089b838383611358565b505050565b600080600a60008481526020019081526020016000206001015490506000600a600085815260200190815260200160002060000160009054906101000a900473ffffffffffffffffffffffffffffffffffffffff1690506000821161093a576040517f08c379a000000000000000000000000000000000000000000000000000000000815260040161093190612c4a565b60405180910390fd5b8073ffffffffffffffffffffffffffffffffffffffff163373ffffffffffffffffffffffffffffffffffffffff16146109a8576040517f08c379a000000000000000000000000000000000000000000000000000000000815260040161099f90612baa565b60405180910390fd5b6000600a6000868152602001908152602001600020600101819055508073ffffffffffffffffffffffffffffffffffffffff166108fc839081150290604051600060405180830381858888f19350505050158015610a0a573d6000803e3d6000fd5b5042600a6000868152602001908152602001600020600201541115610a3757610a32846115bf565b610a43565b610a42308286611358565b5b8192505050919050565b610a6883838360405180602001604052806000815250610d8d565b505050565b610a7e610a786111b9565b8261127a565b610abd576040517f08c379a0000000000000000000000000000000000000000000000000000000008152600401610ab490612e4a565b60405180910390fd5b610ac6816115bf565b50565b6000806002600084815260200190815260200160002060009054906101000a900473ffffffffffffffffffffffffffffffffffffffff169050600073ffffffffffffffffffffffffffffffffffffffff168173ffffffffffffffffffffffffffffffffffffffff161415610b72576040517f08c379a0000000000000000000000000000000000000000000000000000000008152600401610b6990612d2a565b60405180910390fd5b80915050919050565b60008073ffffffffffffffffffffffffffffffffffffffff168273ffffffffffffffffffffffffffffffffffffffff161415610bec576040517f08c379a0000000000000000000000000000000000000000000000000000000008152600401610be390612d0a565b60405180910390fd5b600360008373ffffffffffffffffffffffffffffffffffffffff1673ffffffffffffffffffffffffffffffffffffffff168152602001908152602001600020549050919050565b610c3b6111b9565b73ffffffffffffffffffffffffffffffffffffffff16610c59610cbb565b73ffffffffffffffffffffffffffffffffffffffff1614610caf576040517f08c379a0000000000000000000000000000000000000000000000000000000008152600401610ca690612dca565b60405180910390fd5b610cb960006115cb565b565b6000600760009054906101000a900473ffffffffffffffffffffffffffffffffffffffff16905090565b606060018054610cf4906130d2565b80601f0160208091040260200160405190810160405280929190818152602001828054610d20906130d2565b8015610d6d5780601f10610d4257610100808354040283529160200191610d6d565b820191906000526020600020905b815481529060010190602001808311610d5057829003601f168201915b5050505050905090565b610d89610d826111b9565b8383611691565b5050565b610d9e610d986111b9565b8361127a565b610ddd576040517f08c379a0000000000000000000000000000000000000000000000000000000008152600401610dd490612e2a565b60405180910390fd5b610de9848484846117fe565b50505050565b6060610dfa8261185a565b9050919050565b6000803411610e45576040517f08c379a0000000000000000000000000000000000000000000000000000000008152600401610e3c90612cea565b60405180910390fd5b6000610e5183336119ac565b905060405180606001604052803373ffffffffffffffffffffffffffffffffffffffff16815260200134815260200185815250600a600083815260200190815260200160002060008201518160000160006101000a81548173ffffffffffffffffffffffffffffffffffffffff021916908373ffffffffffffffffffffffffffffffffffffffff16021790555060208201518160010155604082015181600201559050508091505092915050565b6000600560008473ffffffffffffffffffffffffffffffffffffffff1673ffffffffffffffffffffffffffffffffffffffff16815260200190815260200160002060008373ffffffffffffffffffffffffffffffffffffffff1673ffffffffffffffffffffffffffffffffffffffff16815260200190815260200160002060009054906101000a900460ff16905092915050565b610f9b6111b9565b73ffffffffffffffffffffffffffffffffffffffff16610fb9610cbb565b73ffffffffffffffffffffffffffffffffffffffff161461100f576040517f08c379a000000000000000000000000000000000000000000000000000000000815260040161100690612dca565b60405180910390fd5b600073ffffffffffffffffffffffffffffffffffffffff168173ffffffffffffffffffffffffffffffffffffffff16141561107f576040517f08c379a000000000000000000000000000000000000000000000000000000000815260040161107690612bea565b60405180910390fd5b611088816115cb565b50565b600a6020528060005260406000206000915090508060000160009054906101000a900473ffffffffffffffffffffffffffffffffffffffff16908060010154908060020154905083565b60007f01ffc9a7000000000000000000000000000000000000000000000000000000007bffffffffffffffffffffffffffffffffffffffffffffffffffffffff1916827bffffffffffffffffffffffffffffffffffffffffffffffffffffffff1916149050919050565b600081600001549050919050565b60008073ffffffffffffffffffffffffffffffffffffffff166002600084815260200190815260200160002060009054906101000a900473ffffffffffffffffffffffffffffffffffffffff1673ffffffffffffffffffffffffffffffffffffffff1614159050919050565b600033905090565b816004600083815260200190815260200160002060006101000a81548173ffffffffffffffffffffffffffffffffffffffff021916908373ffffffffffffffffffffffffffffffffffffffff160217905550808273ffffffffffffffffffffffffffffffffffffffff1661123483610ac9565b73ffffffffffffffffffffffffffffffffffffffff167f8c5be1e5ebec7d5bd14f71427d1e84f3dd0314c0f7b2291e5b200ac8c7c3b92560405160405180910390a45050565b60006112858261114d565b6112c4576040517f08c379a00000000000000000000000000000000000000000000000000000000081526004016112bb90612caa565b60405180910390fd5b60006112cf83610ac9565b90508073ffffffffffffffffffffffffffffffffffffffff168473ffffffffffffffffffffffffffffffffffffffff16148061131157506113108185610eff565b5b8061134f57508373ffffffffffffffffffffffffffffffffffffffff16611337846106a3565b73ffffffffffffffffffffffffffffffffffffffff16145b91505092915050565b8273ffffffffffffffffffffffffffffffffffffffff1661137882610ac9565b73ffffffffffffffffffffffffffffffffffffffff16146113ce576040517f08c379a00000000000000000000000000000000000000000000000000000000081526004016113c590612c0a565b60405180910390fd5b600073ffffffffffffffffffffffffffffffffffffffff168273ffffffffffffffffffffffffffffffffffffffff16141561143e576040517f08c379a000000000000000000000000000000000000000000000000000000000815260040161143590612c6a565b60405180910390fd5b611449838383611a35565b6114546000826111c1565b6001600360008573ffffffffffffffffffffffffffffffffffffffff1673ffffffffffffffffffffffffffffffffffffffff16815260200190815260200160002060008282546114a49190612fd6565b925050819055506001600360008473ffffffffffffffffffffffffffffffffffffffff1673ffffffffffffffffffffffffffffffffffffffff16815260200190815260200160002060008282546114fb9190612f4f565b92505081905550816002600083815260200190815260200160002060006101000a81548173ffffffffffffffffffffffffffffffffffffffff021916908373ffffffffffffffffffffffffffffffffffffffff160217905550808273ffffffffffffffffffffffffffffffffffffffff168473ffffffffffffffffffffffffffffffffffffffff167fddf252ad1be2c89b69c2b068fc378daa952ba7f163c4a11628f55a4df523b3ef60405160405180910390a46115ba838383611a3a565b505050565b6115c881611a3f565b50565b6000600760009054906101000a900473ffffffffffffffffffffffffffffffffffffffff16905081600760006101000a81548173ffffffffffffffffffffffffffffffffffffffff021916908373ffffffffffffffffffffffffffffffffffffffff1602179055508173ffffffffffffffffffffffffffffffffffffffff168173ffffffffffffffffffffffffffffffffffffffff167f8be0079c531659141344cd1fd0a4f28419497f9722a3daafe3b4186f6b6457e060405160405180910390a35050565b8173ffffffffffffffffffffffffffffffffffffffff168373ffffffffffffffffffffffffffffffffffffffff161415611700576040517f08c379a00000000000000000000000000000000000000000000000000000000081526004016116f790612c8a565b60405180910390fd5b80600560008573ffffffffffffffffffffffffffffffffffffffff1673ffffffffffffffffffffffffffffffffffffffff16815260200190815260200160002060008473ffffffffffffffffffffffffffffffffffffffff1673ffffffffffffffffffffffffffffffffffffffff16815260200190815260200160002060006101000a81548160ff0219169083151502179055508173ffffffffffffffffffffffffffffffffffffffff168373ffffffffffffffffffffffffffffffffffffffff167f17307eab39ab6107e8899845ad3d59bd9653f200f220920489ca2b5937696c31836040516117f19190612b6d565b60405180910390a3505050565b611809848484611358565b61181584848484611a92565b611854576040517f08c379a000000000000000000000000000000000000000000000000000000000815260040161184b90612bca565b60405180910390fd5b50505050565b60606118658261114d565b6118a4576040517f08c379a000000000000000000000000000000000000000000000000000000000815260040161189b90612d8a565b60405180910390fd5b60006006600084815260200190815260200160002080546118c4906130d2565b80601f01602080910402602001604051908101604052809291908181526020018280546118f0906130d2565b801561193d5780601f106119125761010080835404028352916020019161193d565b820191906000526020600020905b81548152906001019060200180831161192057829003601f168201915b50505050509050600061194e611c29565b90506000815114156119645781925050506119a7565b600082511115611999578082604051602001611981929190612aab565b604051602081830303815290604052925050506119a7565b6119a284611c40565b925050505b919050565b6000806119b9600861113f565b9050826009600083815260200190815260200160002060006101000a81548173ffffffffffffffffffffffffffffffffffffffff021916908373ffffffffffffffffffffffffffffffffffffffff160217905550611a176008611ce7565b611a213082611cfd565b611a2b8185611ed7565b8091505092915050565b505050565b505050565b611a4881611f4b565b6000600660008381526020019081526020016000208054611a68906130d2565b905014611a8f57600660008281526020019081526020016000206000611a8e9190612238565b5b50565b6000611ab38473ffffffffffffffffffffffffffffffffffffffff16612068565b15611c1c578373ffffffffffffffffffffffffffffffffffffffff1663150b7a02611adc6111b9565b8786866040518563ffffffff1660e01b8152600401611afe9493929190612b21565b602060405180830381600087803b158015611b1857600080fd5b505af1925050508015611b4957506040513d601f19601f82011682018060405250810190611b469190612624565b60015b611bcc573d8060008114611b79576040519150601f19603f3d011682016040523d82523d6000602084013e611b7e565b606091505b50600081511415611bc4576040517f08c379a0000000000000000000000000000000000000000000000000000000008152600401611bbb90612bca565b60405180910390fd5b805181602001fd5b63150b7a0260e01b7bffffffffffffffffffffffffffffffffffffffffffffffffffffffff1916817bffffffffffffffffffffffffffffffffffffffffffffffffffffffff191614915050611c21565b600190505b949350505050565b606060405180602001604052806000815250905090565b6060611c4b8261114d565b611c8a576040517f08c379a0000000000000000000000000000000000000000000000000000000008152600401611c8190612dea565b60405180910390fd5b6000611c94611c29565b90506000815111611cb45760405180602001604052806000815250611cdf565b80611cbe8461208b565b604051602001611ccf929190612aab565b6040516020818303038152906040525b915050919050565b6001816000016000828254019250508190555050565b600073ffffffffffffffffffffffffffffffffffffffff168273ffffffffffffffffffffffffffffffffffffffff161415611d6d576040517f08c379a0000000000000000000000000000000000000000000000000000000008152600401611d6490612d6a565b60405180910390fd5b611d768161114d565b15611db6576040517f08c379a0000000000000000000000000000000000000000000000000000000008152600401611dad90612c2a565b60405180910390fd5b611dc260008383611a35565b6001600360008473ffffffffffffffffffffffffffffffffffffffff1673ffffffffffffffffffffffffffffffffffffffff1681526020019081526020016000206000828254611e129190612f4f565b92505081905550816002600083815260200190815260200160002060006101000a81548173ffffffffffffffffffffffffffffffffffffffff021916908373ffffffffffffffffffffffffffffffffffffffff160217905550808273ffffffffffffffffffffffffffffffffffffffff16600073ffffffffffffffffffffffffffffffffffffffff167fddf252ad1be2c89b69c2b068fc378daa952ba7f163c4a11628f55a4df523b3ef60405160405180910390a4611ed360008383611a3a565b5050565b611ee08261114d565b611f1f576040517f08c379a0000000000000000000000000000000000000000000000000000000008152600401611f1690612d4a565b60405180910390fd5b80600660008481526020019081526020016000209080519060200190611f46929190612278565b505050565b6000611f5682610ac9565b9050611f6481600084611a35565b611f6f6000836111c1565b6001600360008373ffffffffffffffffffffffffffffffffffffffff1673ffffffffffffffffffffffffffffffffffffffff1681526020019081526020016000206000828254611fbf9190612fd6565b925050819055506002600083815260200190815260200160002060006101000a81549073ffffffffffffffffffffffffffffffffffffffff021916905581600073ffffffffffffffffffffffffffffffffffffffff168273ffffffffffffffffffffffffffffffffffffffff167fddf252ad1be2c89b69c2b068fc378daa952ba7f163c4a11628f55a4df523b3ef60405160405180910390a461206481600084611a3a565b5050565b6000808273ffffffffffffffffffffffffffffffffffffffff163b119050919050565b606060008214156120d3576040518060400160405280600181526020017f30000000000000000000000000000000000000000000000000000000000000008152509050612233565b600082905060005b600082146121055780806120ee90613135565b915050600a826120fe9190612fa5565b91506120db565b60008167ffffffffffffffff811115612147577f4e487b7100000000000000000000000000000000000000000000000000000000600052604160045260246000fd5b6040519080825280601f01601f1916602001820160405280156121795781602001600182028036833780820191505090505b5090505b6000851461222c576001826121929190612fd6565b9150600a856121a1919061317e565b60306121ad9190612f4f565b60f81b8183815181106121e9577f4e487b7100000000000000000000000000000000000000000000000000000000600052603260045260246000fd5b60200101907effffffffffffffffffffffffffffffffffffffffffffffffffffffffffffff1916908160001a905350600a856122259190612fa5565b945061217d565b8093505050505b919050565b508054612244906130d2565b6000825580601f106122565750612275565b601f01602090049060005260206000209081019061227491906122fe565b5b50565b828054612284906130d2565b90600052602060002090601f0160209004810192826122a657600085556122ed565b82601f106122bf57805160ff19168380011785556122ed565b828001600101855582156122ed579182015b828111156122ec5782518255916020019190600101906122d1565b5b5090506122fa91906122fe565b5090565b5b808211156123175760008160009055506001016122ff565b5090565b600061232e61232984612eaa565b612e85565b90508281526020810184848401111561234657600080fd5b612351848285613090565b509392505050565b600061236c61236784612edb565b612e85565b90508281526020810184848401111561238457600080fd5b61238f848285613090565b509392505050565b6000813590506123a681613862565b92915050565b6000813590506123bb81613879565b92915050565b6000813590506123d081613890565b92915050565b6000815190506123e581613890565b92915050565b600082601f8301126123fc57600080fd5b813561240c84826020860161231b565b91505092915050565b600082601f83011261242657600080fd5b8135612436848260208601612359565b91505092915050565b60008135905061244e816138a7565b92915050565b60006020828403121561246657600080fd5b600061247484828501612397565b91505092915050565b6000806040838503121561249057600080fd5b600061249e85828601612397565b92505060206124af85828601612397565b9150509250929050565b6000806000606084860312156124ce57600080fd5b60006124dc86828701612397565b93505060206124ed86828701612397565b92505060406124fe8682870161243f565b9150509250925092565b6000806000806080858703121561251e57600080fd5b600061252c87828801612397565b945050602061253d87828801612397565b935050604061254e8782880161243f565b925050606085013567ffffffffffffffff81111561256b57600080fd5b612577878288016123eb565b91505092959194509250565b6000806040838503121561259657600080fd5b60006125a485828601612397565b92505060206125b5858286016123ac565b9150509250929050565b600080604083850312156125d257600080fd5b60006125e085828601612397565b92505060206125f18582860161243f565b9150509250929050565b60006020828403121561260d57600080fd5b600061261b848285016123c1565b91505092915050565b60006020828403121561263657600080fd5b6000612644848285016123d6565b91505092915050565b60006020828403121561265f57600080fd5b600061266d8482850161243f565b91505092915050565b6000806040838503121561268957600080fd5b60006126978582860161243f565b925050602083013567ffffffffffffffff8111156126b457600080fd5b6126c085828601612415565b9150509250929050565b6126d38161301c565b82525050565b6126e28161300a565b82525050565b6126f18161302e565b82525050565b600061270282612f0c565b61270c8185612f22565b935061271c81856020860161309f565b6127258161326b565b840191505092915050565b600061273b82612f17565b6127458185612f33565b935061275581856020860161309f565b61275e8161326b565b840191505092915050565b600061277482612f17565b61277e8185612f44565b935061278e81856020860161309f565b80840191505092915050565b60006127a7601783612f33565b91506127b28261327c565b602082019050919050565b60006127ca603283612f33565b91506127d5826132a5565b604082019050919050565b60006127ed602683612f33565b91506127f8826132f4565b604082019050919050565b6000612810602583612f33565b915061281b82613343565b604082019050919050565b6000612833601c83612f33565b915061283e82613392565b602082019050919050565b6000612856602883612f33565b9150612861826133bb565b604082019050919050565b6000612879602483612f33565b91506128848261340a565b604082019050919050565b600061289c601983612f33565b91506128a782613459565b602082019050919050565b60006128bf602c83612f33565b91506128ca82613482565b604082019050919050565b60006128e2603883612f33565b91506128ed826134d1565b604082019050919050565b6000612905601d83612f33565b915061291082613520565b602082019050919050565b6000612928602a83612f33565b915061293382613549565b604082019050919050565b600061294b602983612f33565b915061295682613598565b604082019050919050565b600061296e602e83612f33565b9150612979826135e7565b604082019050919050565b6000612991602083612f33565b915061299c82613636565b602082019050919050565b60006129b4603183612f33565b91506129bf8261365f565b604082019050919050565b60006129d7602c83612f33565b91506129e2826136ae565b604082019050919050565b60006129fa602083612f33565b9150612a05826136fd565b602082019050919050565b6000612a1d602f83612f33565b9150612a2882613726565b604082019050919050565b6000612a40602183612f33565b9150612a4b82613775565b604082019050919050565b6000612a63603183612f33565b9150612a6e826137c4565b604082019050919050565b6000612a86603083612f33565b9150612a9182613813565b604082019050919050565b612aa581613086565b82525050565b6000612ab78285612769565b9150612ac38284612769565b91508190509392505050565b6000602082019050612ae460008301846126d9565b92915050565b6000606082019050612aff60008301866126ca565b612b0c6020830185612a9c565b612b196040830184612a9c565b949350505050565b6000608082019050612b3660008301876126d9565b612b4360208301866126d9565b612b506040830185612a9c565b8181036060830152612b6281846126f7565b905095945050505050565b6000602082019050612b8260008301846126e8565b92915050565b60006020820190508181036000830152612ba28184612730565b905092915050565b60006020820190508181036000830152612bc38161279a565b9050919050565b60006020820190508181036000830152612be3816127bd565b9050919050565b60006020820190508181036000830152612c03816127e0565b9050919050565b60006020820190508181036000830152612c2381612803565b9050919050565b60006020820190508181036000830152612c4381612826565b9050919050565b60006020820190508181036000830152612c6381612849565b9050919050565b60006020820190508181036000830152612c838161286c565b9050919050565b60006020820190508181036000830152612ca38161288f565b9050919050565b60006020820190508181036000830152612cc3816128b2565b9050919050565b60006020820190508181036000830152612ce3816128d5565b9050919050565b60006020820190508181036000830152612d03816128f8565b9050919050565b60006020820190508181036000830152612d238161291b565b9050919050565b60006020820190508181036000830152612d438161293e565b9050919050565b60006020820190508181036000830152612d6381612961565b9050919050565b60006020820190508181036000830152612d8381612984565b9050919050565b60006020820190508181036000830152612da3816129a7565b9050919050565b60006020820190508181036000830152612dc3816129ca565b9050919050565b60006020820190508181036000830152612de3816129ed565b9050919050565b60006020820190508181036000830152612e0381612a10565b9050919050565b60006020820190508181036000830152612e2381612a33565b9050919050565b60006020820190508181036000830152612e4381612a56565b9050919050565b60006020820190508181036000830152612e6381612a79565b9050919050565b6000602082019050612e7f6000830184612a9c565b92915050565b6000612e8f612ea0565b9050612e9b8282613104565b919050565b6000604051905090565b600067ffffffffffffffff821115612ec557612ec461323c565b5b612ece8261326b565b9050602081019050919050565b600067ffffffffffffffff821115612ef657612ef561323c565b5b612eff8261326b565b9050602081019050919050565b600081519050919050565b600081519050919050565b600082825260208201905092915050565b600082825260208201905092915050565b600081905092915050565b6000612f5a82613086565b9150612f6583613086565b9250827fffffffffffffffffffffffffffffffffffffffffffffffffffffffffffffffff03821115612f9a57612f996131af565b5b828201905092915050565b6000612fb082613086565b9150612fbb83613086565b925082612fcb57612fca6131de565b5b828204905092915050565b6000612fe182613086565b9150612fec83613086565b925082821015612fff57612ffe6131af565b5b828203905092915050565b600061301582613066565b9050919050565b600061302782613066565b9050919050565b60008115159050919050565b60007fffffffff0000000000000000000000000000000000000000000000000000000082169050919050565b600073ffffffffffffffffffffffffffffffffffffffff82169050919050565b6000819050919050565b82818337600083830152505050565b60005b838110156130bd5780820151818401526020810190506130a2565b838111156130cc576000848401525b50505050565b600060028204905060018216806130ea57607f821691505b602082108114156130fe576130fd61320d565b5b50919050565b61310d8261326b565b810181811067ffffffffffffffff8211171561312c5761312b61323c565b5b80604052505050565b600061314082613086565b91507fffffffffffffffffffffffffffffffffffffffffffffffffffffffffffffffff821415613173576131726131af565b5b600182019050919050565b600061318982613086565b915061319483613086565b9250826131a4576131a36131de565b5b828206905092915050565b7f4e487b7100000000000000000000000000000000000000000000000000000000600052601160045260246000fd5b7f4e487b7100000000000000000000000000000000000000000000000000000000600052601260045260246000fd5b7f4e487b7100000000000000000000000000000000000000000000000000000000600052602260045260246000fd5b7f4e487b7100000000000000000000000000000000000000000000000000000000600052604160045260246000fd5b6000601f19601f8301169050919050565b7f73656e646572206d757374206f776e20746865206e6674000000000000000000600082015250565b7f4552433732313a207472616e7366657220746f206e6f6e20455243373231526560008201527f63656976657220696d706c656d656e7465720000000000000000000000000000602082015250565b7f4f776e61626c653a206e6577206f776e657220697320746865207a65726f206160008201527f6464726573730000000000000000000000000000000000000000000000000000602082015250565b7f4552433732313a207472616e736665722066726f6d20696e636f72726563742060008201527f6f776e6572000000000000000000000000000000000000000000000000000000602082015250565b7f4552433732313a20746f6b656e20616c7265616479206d696e74656400000000600082015250565b7f73656e646572206d7573742068617665206465706f736974732067726561746560008201527f72207468616e2030000000000000000000000000000000000000000000000000602082015250565b7f4552433732313a207472616e7366657220746f20746865207a65726f2061646460008201527f7265737300000000000000000000000000000000000000000000000000000000602082015250565b7f4552433732313a20617070726f766520746f2063616c6c657200000000000000600082015250565b7f4552433732313a206f70657261746f7220717565727920666f72206e6f6e657860008201527f697374656e7420746f6b656e0000000000000000000000000000000000000000602082015250565b7f4552433732313a20617070726f76652063616c6c6572206973206e6f74206f7760008201527f6e6572206e6f7220617070726f76656420666f7220616c6c0000000000000000602082015250565b7f616d6f756e74206d7573742062652067726561746572207468616e2030000000600082015250565b7f4552433732313a2062616c616e636520717565727920666f7220746865207a6560008201527f726f206164647265737300000000000000000000000000000000000000000000602082015250565b7f4552433732313a206f776e657220717565727920666f72206e6f6e657869737460008201527f656e7420746f6b656e0000000000000000000000000000000000000000000000602082015250565b7f45524337323155524953746f726167653a2055524920736574206f66206e6f6e60008201527f6578697374656e7420746f6b656e000000000000000000000000000000000000602082015250565b7f4552433732313a206d696e7420746f20746865207a65726f2061646472657373600082015250565b7f45524337323155524953746f726167653a2055524920717565727920666f722060008201527f6e6f6e6578697374656e7420746f6b656e000000000000000000000000000000602082015250565b7f4552433732313a20617070726f76656420717565727920666f72206e6f6e657860008201527f697374656e7420746f6b656e0000000000000000000000000000000000000000602082015250565b7f4f776e61626c653a2063616c6c6572206973206e6f7420746865206f776e6572600082015250565b7f4552433732314d657461646174613a2055524920717565727920666f72206e6f60008201527f6e6578697374656e7420746f6b656e0000000000000000000000000000000000602082015250565b7f4552433732313a20617070726f76616c20746f2063757272656e74206f776e6560008201527f7200000000000000000000000000000000000000000000000000000000000000602082015250565b7f4552433732313a207472616e736665722063616c6c6572206973206e6f74206f60008201527f776e6572206e6f7220617070726f766564000000000000000000000000000000602082015250565b7f4552433732314275726e61626c653a2063616c6c6572206973206e6f74206f7760008201527f6e6572206e6f7220617070726f76656400000000000000000000000000000000602082015250565b61386b8161300a565b811461387657600080fd5b50565b6138828161302e565b811461388d57600080fd5b50565b6138998161303a565b81146138a457600080fd5b50565b6138b081613086565b81146138bb57600080fd5b5056fea2646970667358221220008a52b017cefded855973d7842f80ff0dbf1c098258c55861e2e09da52b472964736f6c63430008040033",
  "linkReferences": {},
  "deployedLinkReferences": {}
}